{
  "contractName": "StoreTraffic",
  "abi": [
    {
      "constant": false,
      "inputs": [
        {
          "internalType": "uint256",
          "name": "gid_A",
          "type": "uint256"
        },
        {
          "internalType": "uint256",
          "name": "gid_B",
          "type": "uint256"
        },
        {
          "internalType": "uint256",
          "name": "delay_time",
          "type": "uint256"
        },
        {
          "internalType": "uint256",
          "name": "pre_seq",
          "type": "uint256"
        },
        {
          "internalType": "uint256",
          "name": "seq",
          "type": "uint256"
        },
        {
          "internalType": "uint256",
          "name": "pre_date",
          "type": "uint256"
        },
        {
          "internalType": "uint256",
          "name": "date",
          "type": "uint256"
        }
      ],
      "name": "smooth_delays",
      "outputs": [],
      "payable": false,
      "stateMutability": "nonpayable",
      "type": "function"
    },
    {
      "constant": false,
      "inputs": [
        {
          "internalType": "uint256",
          "name": "gid_A",
          "type": "uint256"
        },
        {
          "internalType": "uint256",
          "name": "gid_B",
          "type": "uint256"
        }
      ],
      "name": "aggregate_delays",
      "outputs": [],
      "payable": false,
      "stateMutability": "nonpayable",
      "type": "function"
    },
    {
      "constant": false,
      "inputs": [
        {
          "internalType": "uint256",
          "name": "gid_A",
          "type": "uint256"
        },
        {
          "internalType": "uint256",
          "name": "gid_B",
          "type": "uint256"
        },
        {
          "internalType": "uint256",
          "name": "delay_time",
          "type": "uint256"
        },
        {
          "internalType": "uint256",
          "name": "seq",
          "type": "uint256"
        },
        {
          "internalType": "uint256",
          "name": "date",
          "type": "uint256"
        }
      ],
      "name": "add_switching_delay",
      "outputs": [],
      "payable": false,
      "stateMutability": "nonpayable",
      "type": "function"
    },
    {
      "constant": false,
      "inputs": [
        {
          "internalType": "uint256",
          "name": "road_id",
          "type": "uint256"
        }
      ],
      "name": "aggregate_traffic",
      "outputs": [],
      "payable": false,
      "stateMutability": "nonpayable",
      "type": "function"
    },
    {
      "constant": false,
      "inputs": [
        {
          "internalType": "uint256",
          "name": "road_id",
          "type": "uint256"
        },
        {
          "internalType": "uint256",
          "name": "speed",
          "type": "uint256"
        },
        {
          "internalType": "uint256",
          "name": "pre_seq",
          "type": "uint256"
        },
        {
          "internalType": "uint256",
          "name": "seq",
          "type": "uint256"
        },
        {
          "internalType": "uint256",
          "name": "pre_date",
          "type": "uint256"
        },
        {
          "internalType": "uint256",
          "name": "date",
          "type": "uint256"
        }
      ],
      "name": "smooth_traffic",
      "outputs": [],
      "payable": false,
      "stateMutability": "nonpayable",
      "type": "function"
    },
    {
      "constant": true,
      "inputs": [
        {
          "internalType": "uint256",
          "name": "road_id",
          "type": "uint256"
        }
      ],
      "name": "get_traffic",
      "outputs": [
        {
          "internalType": "uint256",
          "name": "speed",
          "type": "uint256"
        },
        {
          "internalType": "uint256",
          "name": "seq",
          "type": "uint256"
        }
      ],
      "payable": false,
      "stateMutability": "view",
      "type": "function"
    },
    {
      "constant": false,
      "inputs": [
        {
          "internalType": "uint256",
          "name": "road_id",
          "type": "uint256"
        },
        {
          "internalType": "uint256",
          "name": "speed",
          "type": "uint256"
        },
        {
          "internalType": "uint256",
          "name": "seq",
          "type": "uint256"
        },
        {
          "internalType": "uint256",
          "name": "date",
          "type": "uint256"
        }
      ],
      "name": "add_traffic",
      "outputs": [],
      "payable": false,
      "stateMutability": "nonpayable",
      "type": "function"
    }
  ],
  "bytecode": "0x6080604052600a6000556003600155600a60025560326003556105a0600455610d0560055534801561003057600080fd5b50610f60806100406000396000f3fe608060405234801561001057600080fd5b506004361061007d5760003560e01c8063521416561161005b578063521416561461016357806353db1a101461019157806376f70360146101fb578063a974a7b5146102475761007d565b8063172b7af21461008257806332a5e619146100cb57806345ddbe3414610103575b600080fd5b6100ae6004803603602081101561009857600080fd5b810190808035906020019092919050505061029d565b604051808381526020018281526020019250505060405180910390f35b610101600480360360408110156100e157600080fd5b8101908080359060200190929190803590602001909291905050506102d7565b005b610161600480360360c081101561011957600080fd5b810190808035906020019092919080359060200190929190803590602001909291908035906020019092919080359060200190929190803590602001909291905050506105f6565b005b61018f6004803603602081101561017957600080fd5b81019080803590602001909291905050506106f5565b005b6101f9600480360360e08110156101a757600080fd5b810190808035906020019092919080359060200190929190803590602001909291908035906020019092919080359060200190929190803590602001909291908035906020019092919050505061092d565b005b6102456004803603608081101561021157600080fd5b8101908080359060200190929190803590602001909291908035906020019092919080359060200190929190505050610a89565b005b61029b600480360360a081101561025d57600080fd5b810190808035906020019092919080359060200190929190803590602001909291908035906020019092919080359060200190929190505050610c95565b005b6000806006600084815260200190815260200160002060020154915060066000848152602001908152602001600020600101549050915091565b6000600783815481106102e657fe5b90600052602060002090600c020182600281106102ff57fe5b6006020160030160010154905060015481106104f057600080600090505b8260030b8160030b12156104ed576007858154811061033857fe5b90600052602060002090600c0201846002811061035157fe5b6006020160030160000160008260030b815260200190815260200160002054915060006001820390505b7fffffffffffffffffffffffffffffffffffffffffffffffffffffffffffffffff8160030b1380156103f05750600786815481106103b557fe5b90600052602060002090600c020185600281106103ce57fe5b6006020160030160000160008260030b81526020019081526020016000205483105b15610493576007868154811061040257fe5b90600052602060002090600c0201856002811061041b57fe5b6006020160030160000160008260030b8152602001908152602001600020546007878154811061044757fe5b90600052602060002090600c0201866002811061046057fe5b6006020160030160000160006001840160030b81526020019081526020016000208190555080806001900391505061037b565b82600787815481106104a157fe5b90600052602060002090600c020186600281106104ba57fe5b6006020160030160000160006001840160030b81526020019081526020016000208190555050808060010191505061031d565b50505b60646003546007858154811061050257fe5b90600052602060002090600c0201846002811061051b57fe5b6006020160030160000160006002858161053157fe5b04815260200190815260200160002054028161054957fe5b0460646003546064036007868154811061055f57fe5b90600052602060002090600c0201856002811061057857fe5b6006020160020154028161058857fe5b04016007848154811061059757fe5b90600052602060002090600c020183600281106105b057fe5b60060201600201819055506000600784815481106105ca57fe5b90600052602060002090600c020183600281106105e357fe5b6006020160030160010181905550505050565b600554851115610605576106ed565b600080905060008284141561063c576000868603116106265784860361062a565b8585035b91508160025402600254019050610666565b60018484031415610660578560045486010391508160025402600254019050610665565b606490505b5b84600660008a81526020019081526020016000206001018190555082600660008a8152602001908152602001600020600001819055506064818802816106a857fe5b04606482606403600660008c81526020019081526020016000206002015402816106ce57fe5b0401600660008a81526020019081526020016000206002018190555050505b505050505050565b600060066000838152602001908152602001600020600301600101549050600154811061088457600080600090505b8260030b8160030b1215610881576006600085815260200190815260200160002060030160000160008260030b815260200190815260200160002054915060006001820390505b7fffffffffffffffffffffffffffffffffffffffffffffffffffffffffffffffff8160030b1380156107c957506006600086815260200190815260200160002060030160000160008260030b81526020019081526020016000205483105b1561083e576006600086815260200190815260200160002060030160000160008260030b8152602001908152602001600020546006600087815260200190815260200160002060030160000160006001840160030b81526020019081526020016000208190555080806001900391505061076b565b826006600087815260200190815260200160002060030160000160006001840160030b815260200190815260200160002081905550508080600101915050610724565b50505b6064600354600660008581526020019081526020016000206003016000016000600285816108ae57fe5b0481526020019081526020016000205402816108c657fe5b046064600354606403600660008681526020019081526020016000206002015402816108ee57fe5b04016006600084815260200190815260200160002060020181905550600060066000848152602001908152602001600020600301600101819055505050565b60055485111561093c57610a80565b60008090506000828414156109735760008686031161095d57848603610961565b8585035b9150816002540260025401905061099d565b6001848403141561099757856004548601039150816002540260025401905061099c565b606490505b5b8460078a815481106109ab57fe5b90600052602060002090600c020189600281106109c457fe5b60060201600101819055508260078a815481106109dd57fe5b90600052602060002090600c020189600281106109f657fe5b6006020160000181905550606481880281610a0d57fe5b0460648260640360078c81548110610a2157fe5b90600052602060002090600c02018b60028110610a3a57fe5b60060201600201540281610a4a57fe5b040160078a81548110610a5957fe5b90600052602060002090600c02018960028110610a7257fe5b600602016002018190555050505b50505050505050565b600060066000868152602001908152602001600020600101549050600060066000878152602001908152602001600020600001549050600080821415610b69576006600088815260200190815260200160002060030160010154905085600660008981526020019081526020016000206003016000016000838060010194508152602001908152602001600020819055508460066000898152602001908152602001600020600101819055508360066000898152602001908152602001600020600001819055506006600088815260200190815260200160002050610c8c565b81841180610b8157508184148015610b8057508285115b5b15610bfa57610b8f876106f5565b610b9d8787858886896105f6565b85600660008981526020019081526020016000206003016000016000808152602001908152602001600020819055506006600088815260200190815260200160002060030160010160008154809291906001019190505550610c8b565b8184148015610c0c5750600285840311155b15610c8a57600660008881526020019081526020016000206003016001015490508560066000898152602001908152602001600020600301600001600083806001019450815260200190815260200160002081905550600054811115610c7a57610c75876106f5565b610c89565b610c888787858886896105f6565b5b5b5b5b50505050505050565b600060078681548110610ca457fe5b90600052602060002090600c02018560028110610cbd57fe5b60060201600101549050600060078781548110610cd657fe5b90600052602060002090600c02018660028110610cef57fe5b60060201600001549050600080821415610d9e578360078981548110610d1157fe5b90600052602060002090600c02018860028110610d2a57fe5b60060201600001819055508460078981548110610d4357fe5b90600052602060002090600c02018860028110610d5c57fe5b60060201600101819055508560078981548110610d7557fe5b90600052602060002090600c02018860028110610d8e57fe5b6006020160020181905550610f21565b81841180610db657508184148015610db557508285115b5b15610e5f57610dc588886102d7565b610dd48888888689878a61092d565b8560078981548110610de257fe5b90600052602060002090600c02018860028110610dfb57fe5b6006020160030160000160008081526020019081526020016000208190555060078881548110610e2757fe5b90600052602060002090600c02018760028110610e4057fe5b6006020160030160010160008154809291906001019190505550610f20565b8184148015610e715750600285840311155b15610f1f5760078881548110610e8357fe5b90600052602060002090600c02018760028110610e9c57fe5b600602016003016001015490508560078981548110610eb757fe5b90600052602060002090600c02018860028110610ed057fe5b60060201600301600001600083806001019450815260200190815260200160002081905550600054811115610f0e57610f0988886102d7565b610f1e565b610f1d8888888689878a61092d565b5b5b5b5b505050505050505056fea265627a7a723158206d748b208694f2f6f14e9d5c0c2e8a26d759eab8b81756031fbe0823023c5d9864736f6c63430005100032",
  "source": "pragma solidity ^0.5.16;\n\ncontract StoreTraffic{\n\t\n\tuint max_threshold = 10;\n\tuint min_threshold = 3;\n\t\n\tuint smooth_delta = 10; //平滑时每相差一个时间段减去的权重(%,暂不支持float, double)\n\tuint aggregate_alpha = 50; //汇总路况的权重\n\t\n\tuint max_seq = 1440; //24*60\n\tuint max_speed = 3333;\n\t\n\t//本地路况数量大于threshold时汇总路况并更新。\n\tstruct tmp_traffics{\n\t\tmapping(uint => uint) tmp_speed;\n\t\tuint counter;\n\t}\n\t\n\tstruct traffic{\n\t\tuint date;\n\t\tuint seq;  // 1分钟一个时间段，只存储最新的路况\n\t\tuint speed;   // 道路速度*100，目前solidity不支持float/double\n\t\ttmp_traffics local_traffic;\n\t}\n\tmapping(uint => traffic) traffics;//道路id->路况\n\n\t//event traffic_change(uint road_id);\n\t\n\t//本地延迟数量大于threshold时汇总延迟并更新。\n\tstruct tmp_delays{\n\t\tmapping(uint => uint) tmp_delaytime;\n\t\tuint counter;\n\t}\n\t\n\tstruct switching_delay{\n\t\tuint date;\n\t\tuint seq;  // 1分钟一个时间段，只存储最新的延迟\n\t\tuint delay_time;//转向延迟时间，单位s\n\t\ttmp_delays local_delaytime;\t\n\t\tmapping (uint => uint) map;\n\t}\n\tswitching_delay[2][] delays;\n\t\n\tfunction smooth_delays(uint gid_A,uint gid_B,uint delay_time, uint pre_seq, uint seq, uint pre_date, uint date) public{\n\t\tif(delay_time > max_speed){\n\t\t\treturn;\n\t\t}\n\t\tuint diff_seq = 0;\n\t\tuint alpha;\n\t\tif(pre_date == date){\n\t\t\tdiff_seq = (seq - pre_seq)>0 ? seq-pre_seq : pre_seq - seq;\n\t\t\talpha = smooth_delta + smooth_delta* diff_seq;\n\t\t}\n\t\telse if(date - pre_date ==1){\n\t\t\tdiff_seq = seq + max_seq - pre_seq;\n\t\t\talpha = smooth_delta + smooth_delta* diff_seq;\n\t\t}\n\t\telse{\n\t\t\talpha = 100;\n\t\t}\n\t\t//更新延迟信息\n\t\tdelays[gid_A][gid_B].seq = seq;\n\t\tdelays[gid_A][gid_B].date = date;\n\t\tdelays[gid_A][gid_B].delay_time = delays[gid_A][gid_B].delay_time * (100- alpha)/ 100 + delay_time * alpha/ 100;\n\t\t\n\t}\n\n\tfunction aggregate_delays(uint gid_A,uint gid_B) public{\n\t\t//对所有延迟进行排序并取中位数\n\t\tuint counter = delays[gid_A][gid_B].local_delaytime.counter;\n\t\tif(counter >= min_threshold){\n\t\t\tuint temp;\n\t\t\tfor(int32 i=0; i< int32(counter); i++){\n\t\t\t\ttemp = delays[gid_A][gid_B].local_delaytime.tmp_delaytime[uint(i)];\n\t\t\t\tint32 j= i-1;\n\t\t\t\twhile(j>-1 && temp < delays[gid_A][gid_B].local_delaytime.tmp_delaytime[uint(j)]){\n\t\t\t\t\tdelays[gid_A][gid_B].local_delaytime.tmp_delaytime[uint(j+1)] = delays[gid_A][gid_B].local_delaytime.tmp_delaytime[uint(j)];\n\t\t\t\t\tj--;\n\t\t\t\t}\n\t\t\t\tdelays[gid_A][gid_B].local_delaytime.tmp_delaytime[uint(j+1)] = temp;\n\t\t\t}\n\t\t}\n\t\tdelays[gid_A][gid_B].delay_time = delays[gid_A][gid_B].delay_time * (100-aggregate_alpha)/ 100 + \n\t\t\tdelays[gid_A][gid_B].local_delaytime.tmp_delaytime[counter/2] * aggregate_alpha/ 100;\n\t\t\t\n\t\t//清空临时延迟\n\t\tdelays[gid_A][gid_B].local_delaytime.counter = 0;\n\t}\n\t\n\tfunction add_switching_delay(uint gid_A,uint gid_B, uint delay_time, uint seq, uint date) public{\n\t\t//对路口添加转向延迟\n\t\t\n\t\tuint pre_seq  = delays[gid_A][gid_B].seq;\n\t\tuint pre_date = delays[gid_A][gid_B].date;\t\t\n\t\t\n\t\tuint counter;\n\t\t\n\t\t//第一次转向延迟\n\t\tif(pre_date == 0){\n\t\t\t//添加转向延迟\n\t\t\tdelays[gid_A][gid_B].date = date;\n\t\t\tdelays[gid_A][gid_B].seq = seq;\n\t\t\tdelays[gid_A][gid_B].delay_time = delay_time;\n\t\t}\n\t\t//转向延迟比当前转向延迟新\n\t\telse if(date > pre_date || date == pre_date && seq > pre_seq){\n\t\t\t//对前一个时间段的延迟进行汇总更新\n\t\t\taggregate_delays(gid_A,gid_B);\n\t\t\t//平滑并更新延迟\n\t\t\tsmooth_delays(gid_A,gid_B, delay_time, pre_seq, seq, pre_date, date);\n\t\t\t//添加到本地延迟\n\t\t\tdelays[gid_A][gid_B].local_delaytime.tmp_delaytime[0] = delay_time;\n\t\t\tdelays[gid_A][gid_B].local_delaytime.counter++;\n\t\t}\n\t\t//允许早两个时间段的延迟提交\n\t\telse if(date == pre_date && pre_seq - seq <= 2){\n\t\t\t//添加到本地延迟\n\t\t\tcounter = delays[gid_A][gid_B].local_delaytime.counter;\n\t\t\tdelays[gid_A][gid_B].local_delaytime.tmp_delaytime[counter++] = delay_time;\n\t\t\t//本地延迟数量大于阈值，汇总延迟并更新\n\t\t\tif(counter > max_threshold){\n\t\t\t\taggregate_delays(gid_A,gid_B);\n\t\t\t}\n\t\t\t//平滑并更新延迟\n\t\t\telse{\n\t\t\t\tsmooth_delays(gid_A,gid_B, delay_time, pre_seq, seq, pre_date, date);\n\t\t\t}\n\t\t}\n\t\t\n\t}\n\n\t\n\tfunction aggregate_traffic(uint road_id) public{\n\t\t//对所有速度进行排序并取中位数\n\t\tuint counter = traffics[road_id].local_traffic.counter;\n\t\tif(counter >= min_threshold){\n\t\t\tuint temp;\n\t\t\tfor(int32 i=0; i< int32(counter); i++){\n\t\t\t\ttemp = traffics[road_id].local_traffic.tmp_speed[uint(i)];\n\t\t\t\tint32 j= i-1;\n\t\t\t\twhile(j>-1 && temp < traffics[road_id].local_traffic.tmp_speed[uint(j)]){\n\t\t\t\t\ttraffics[road_id].local_traffic.tmp_speed[uint(j+1)] = traffics[road_id].local_traffic.tmp_speed[uint(j)];\n\t\t\t\t\tj--;\n\t\t\t\t}\n\t\t\t\ttraffics[road_id].local_traffic.tmp_speed[uint(j+1)] = temp;\n\t\t\t}\n\t\t}\n\t\ttraffics[road_id].speed = traffics[road_id].speed * (100-aggregate_alpha)/ 100 + \n\t\t\ttraffics[road_id].local_traffic.tmp_speed[counter/2] * aggregate_alpha/ 100;\n\t\t\t\n\t\t//清空临时路况\t\n\t\ttraffics[road_id].local_traffic.counter = 0;\n\t}\n\t\n\tfunction smooth_traffic(uint road_id, uint speed, uint pre_seq, uint seq, uint pre_date, uint date) public{\n\t\tif(speed > max_speed){\n\t\t\treturn;\n\t\t}\n\t\tuint diff_seq = 0;\n\t\tuint alpha;\n\t\tif(pre_date == date){\n\t\t\tdiff_seq = (seq - pre_seq)>0 ? seq-pre_seq : pre_seq - seq;\n\t\t\talpha = smooth_delta + smooth_delta* diff_seq;\n\t\t}\n\t\telse if(date - pre_date ==1){\n\t\t\tdiff_seq = seq + max_seq - pre_seq;\n\t\t\talpha = smooth_delta + smooth_delta* diff_seq;\n\t\t}\n\t\telse{\n\t\t\talpha = 100;\n\t\t}\n\t\t//更新路况信息\n\t\ttraffics[road_id].seq = seq;\n\t\ttraffics[road_id].date = date;\n\t\ttraffics[road_id].speed = traffics[road_id].speed * (100- alpha)/ 100 + speed * alpha/ 100;\n\t\t\n\t}\n\t\n\tfunction get_traffic(uint road_id) view public returns (uint speed, uint seq) {\n\t\tspeed = traffics[road_id].speed;\n\t\tseq = traffics[road_id].seq;\n    }\t\n\n\tfunction add_traffic(uint road_id, uint speed, uint seq, uint date) public{\n\t\tuint pre_seq  = traffics[road_id].seq;\n\t\tuint pre_date = traffics[road_id].date;\n\t\t\n\t\tuint counter;\n\t\t//第一次路况\n\t\tif(pre_date == 0){\n\t\t\t//添加到本地路况\n\t\t\tcounter = traffics[road_id].local_traffic.counter;\n\t\t\ttraffics[road_id].local_traffic.tmp_speed[counter++] = speed;\n\t\t\ttraffics[road_id].seq = seq;\n\t\t\ttraffics[road_id].date = date;\n\t\t\ttraffics[road_id].speed;\n\t\t}\n\t\t//路况比当前路况新\n\t\telse if(date > pre_date || date == pre_date && seq > pre_seq){\n\t\t\t//对前一个时间段的路况进行汇总更新\n\t\t\taggregate_traffic(road_id);\n\t\t\t//平滑并更新路况\n\t\t\tsmooth_traffic(road_id, speed, pre_seq, seq, pre_date, date);\n\t\t\t//添加到本地路况\n\t\t\ttraffics[road_id].local_traffic.tmp_speed[0] = speed;\n\t\t\ttraffics[road_id].local_traffic.counter++;\n\t\t}\n\t\t//允许早两个时间段的路况提交\n\t\telse if(date == pre_date && pre_seq - seq <= 2){\n\t\t\t//添加到本地路况\n\t\t\tcounter = traffics[road_id].local_traffic.counter;\n\t\t\ttraffics[road_id].local_traffic.tmp_speed[counter++] = speed;\n\t\t\t//本地路况数量大于阈值，汇总路况并更新\n\t\t\tif(counter > max_threshold){\n\t\t\t\taggregate_traffic(road_id);\n\t\t\t}\n\t\t\t//平滑并更新路况\n\t\t\telse{\n\t\t\t\tsmooth_traffic(road_id, speed, pre_seq, seq, pre_date, date);\n\t\t\t}\n\t\t}\n\n    }\n\t\n}\n\n",
  "sourcePath": "/run/media/ifpop/文件/Arch_file/workspace/test1/contracts/StoreTraffic.sol",
  "compiler": {
    "name": "solc",
    "version": "0.5.16+commit.9c3226ce.Emscripten.clang"
  },
  "schemaVersion": "3.3.3",
  "updatedAt": "2021-04-19T07:31:00.608Z",
  "networkType": "ethereum",
  "devdoc": {
    "methods": {}
  },
  "userdoc": {
    "methods": {}
  }
}