{
  "contractName": "StoreMap",
  "abi": [
    {
      "inputs": [],
      "payable": false,
      "stateMutability": "nonpayable",
      "type": "constructor"
    },
    {
      "constant": true,
      "inputs": [
        {
          "internalType": "bytes32",
          "name": "",
          "type": "bytes32"
        }
      ],
      "name": "geo_maps",
      "outputs": [
        {
          "internalType": "uint256",
          "name": "num",
          "type": "uint256"
        }
      ],
      "payable": false,
      "stateMutability": "view",
      "type": "function"
    },
    {
      "constant": true,
      "inputs": [],
      "name": "owner",
      "outputs": [
        {
          "internalType": "address",
          "name": "",
          "type": "address"
        }
      ],
      "payable": false,
      "stateMutability": "view",
      "type": "function"
    },
    {
      "constant": true,
      "inputs": [
        {
          "internalType": "uint256",
          "name": "gid",
          "type": "uint256"
        }
      ],
      "name": "get_road",
      "outputs": [
        {
          "internalType": "int32[]",
          "name": "road",
          "type": "int32[]"
        },
        {
          "internalType": "bytes32",
          "name": "names",
          "type": "bytes32"
        },
        {
          "internalType": "int32[]",
          "name": "path",
          "type": "int32[]"
        }
      ],
      "payable": false,
      "stateMutability": "view",
      "type": "function"
    },
    {
      "constant": true,
      "inputs": [
        {
          "internalType": "bytes32",
          "name": "hash",
          "type": "bytes32"
        }
      ],
      "name": "get_roads",
      "outputs": [
        {
          "internalType": "int32[]",
          "name": "road",
          "type": "int32[]"
        },
        {
          "internalType": "bytes32[]",
          "name": "names",
          "type": "bytes32[]"
        },
        {
          "internalType": "int32[]",
          "name": "path",
          "type": "int32[]"
        }
      ],
      "payable": false,
      "stateMutability": "view",
      "type": "function"
    },
    {
      "constant": false,
      "inputs": [
        {
          "internalType": "uint256",
          "name": "gid",
          "type": "uint256"
        },
        {
          "internalType": "int32",
          "name": "x1",
          "type": "int32"
        },
        {
          "internalType": "int32",
          "name": "y1",
          "type": "int32"
        },
        {
          "internalType": "int32",
          "name": "x2",
          "type": "int32"
        },
        {
          "internalType": "int32",
          "name": "y2",
          "type": "int32"
        },
        {
          "internalType": "int32",
          "name": "source",
          "type": "int32"
        },
        {
          "internalType": "int32",
          "name": "target",
          "type": "int32"
        },
        {
          "internalType": "bool",
          "name": "oneway",
          "type": "bool"
        },
        {
          "internalType": "bytes32",
          "name": "name",
          "type": "bytes32"
        },
        {
          "internalType": "int32[]",
          "name": "path",
          "type": "int32[]"
        }
      ],
      "name": "add_road",
      "outputs": [],
      "payable": false,
      "stateMutability": "nonpayable",
      "type": "function"
    },
    {
      "constant": false,
      "inputs": [
        {
          "internalType": "bytes32",
          "name": "hash",
          "type": "bytes32"
        },
        {
          "internalType": "uint256",
          "name": "gid",
          "type": "uint256"
        }
      ],
      "name": "add_area_road",
      "outputs": [],
      "payable": false,
      "stateMutability": "nonpayable",
      "type": "function"
    }
  ],
  "bytecode": "0x608060405234801561001057600080fd5b50336000806101000a81548173ffffffffffffffffffffffffffffffffffffffff021916908373ffffffffffffffffffffffffffffffffffffffff160217905550610ebc806100606000396000f3fe608060405234801561001057600080fd5b50600436106100625760003560e01c806388ad35c3146100675780638da5cb5b1461017a57806391254afb146101c4578063a71d5cd614610296578063b21bff51146103bd578063cbf3b01e146103f5575b600080fd5b6100936004803603602081101561007d57600080fd5b8101908080359060200190929190505050610437565b60405180806020018060200180602001848103845287818151815260200191508051906020019060200280838360005b838110156100de5780820151818401526020810190506100c3565b50505050905001848103835286818151815260200191508051906020019060200280838360005b83811015610120578082015181840152602081019050610105565b50505050905001848103825285818151815260200191508051906020019060200280838360005b83811015610162578082015181840152602081019050610147565b50505050905001965050505050505060405180910390f35b610182610856565b604051808273ffffffffffffffffffffffffffffffffffffffff1673ffffffffffffffffffffffffffffffffffffffff16815260200191505060405180910390f35b6101f0600480360360208110156101da57600080fd5b810190808035906020019092919050505061087b565b604051808060200184815260200180602001838103835286818151815260200191508051906020019060200280838360005b8381101561023d578082015181840152602081019050610222565b50505050905001838103825284818151815260200191508051906020019060200280838360005b8381101561027f578082015181840152602081019050610264565b505050509050019550505050505060405180910390f35b6103bb60048036036101408110156102ad57600080fd5b8101908080359060200190929190803560030b9060200190929190803560030b9060200190929190803560030b9060200190929190803560030b9060200190929190803560030b9060200190929190803560030b9060200190929190803515159060200190929190803590602001909291908035906020019064010000000081111561033857600080fd5b82018360208201111561034a57600080fd5b8035906020019184602083028401116401000000008311171561036c57600080fd5b919080806020026020016040519081016040528093929190818152602001838360200280828437600081840152601f19601f820116905080830192505050505050509192919290505050610b08565b005b6103f3600480360360408110156103d357600080fd5b810190808035906020019092919080359060200190929190505050610db9565b005b6104216004803603602081101561040b57600080fd5b8101908080359060200190929190505050610e69565b6040518082815260200191505060405180910390f35b6060806060600060026000868152602001908152602001600020600001549050600080905060008083111561084c57826008026040519080825280602002602001820160405280156104985781602001602082028038833980820191505090505b509550826040519080825280602002602001820160405280156104ca5781602001602082028038833980820191505090505b50945060008091505b8382101561072257600260008981526020019081526020016000206001016000838152602001908152602001600020549050600060016000838152602001908152602001600020905060006008840290508289828151811061053157fe5b602002602001019060030b908160030b815250508160000160009054906101000a900460030b89600183018151811061056657fe5b602002602001019060030b908160030b815250508160000160089054906101000a900460030b89600283018151811061059b57fe5b602002602001019060030b908160030b815250508160000160049054906101000a900460030b8960038301815181106105d057fe5b602002602001019060030b908160030b8152505081600001600c9054906101000a900460030b89600483018151811061060557fe5b602002602001019060030b908160030b815250508160000160109054906101000a900460030b89600583018151811061063a57fe5b602002602001019060030b908160030b815250508160000160149054906101000a900460030b89600683018151811061066f57fe5b602002602001019060030b908160030b815250508160020154600186010194508160000160189054906101000a900460ff16156106d05760018960078301815181106106b757fe5b602002602001019060030b908160030b815250506106f6565b60008960078301815181106106e157fe5b602002602001019060030b908160030b815250505b816001015488858151811061070757fe5b602002602001018181525050505081806001019250506104d3565b826040519080825280602002602001820160405280156107515781602001602082028038833980820191505090505b5094506000809050600092505b8483101561084957600260008a81526020019081526020016000206001016000848152602001908152602001600020549150600060016000848152602001908152602001600020905080600201548783806001019450815181106107be57fe5b602002602001019060030b908160030b8152505060008090505b816002015481101561083a5781600301600082815260200190815260200160002060009054906101000a900460030b88848060010195508151811061081957fe5b602002602001019060030b908160030b8152505080806001019150506107d8565b5050828060010193505061075e565b50505b5050509193909250565b6000809054906101000a900473ffffffffffffffffffffffffffffffffffffffff1681565b60606000606060076040519080825280602002602001820160405280156108b15781602001602082028038833980820191505090505b509250600060016000868152602001908152602001600020905080600201546040519080825280602002602001820160405280156108fe5781602001602082028038833980820191505090505b5091508060000160009054906101000a900460030b8460008151811061092057fe5b602002602001019060030b908160030b815250508060000160089054906101000a900460030b8460018151811061095357fe5b602002602001019060030b908160030b815250508060000160049054906101000a900460030b8460028151811061098657fe5b602002602001019060030b908160030b8152505080600001600c9054906101000a900460030b846003815181106109b957fe5b602002602001019060030b908160030b815250508060000160109054906101000a900460030b846004815181106109ec57fe5b602002602001019060030b908160030b815250508060000160149054906101000a900460030b84600581518110610a1f57fe5b602002602001019060030b908160030b815250508060000160189054906101000a900460ff1615610a7257600184600681518110610a5957fe5b602002602001019060030b908160030b81525050610a96565b600084600681518110610a8157fe5b602002602001019060030b908160030b815250505b8060010154925060008090505b8160020154811015610aff5781600301600082815260200190815260200160002060009054906101000a900460030b838281518110610ade57fe5b602002602001019060030b908160030b815250508080600101915050610aa3565b50509193909250565b6000809054906101000a900473ffffffffffffffffffffffffffffffffffffffff1673ffffffffffffffffffffffffffffffffffffffff163373ffffffffffffffffffffffffffffffffffffffff161415610dad5788600160008c815260200190815260200160002060000160006101000a81548163ffffffff021916908360030b63ffffffff16021790555086600160008c815260200190815260200160002060000160046101000a81548163ffffffff021916908360030b63ffffffff16021790555087600160008c815260200190815260200160002060000160086101000a81548163ffffffff021916908360030b63ffffffff16021790555085600160008c8152602001908152602001600020600001600c6101000a81548163ffffffff021916908360030b63ffffffff16021790555084600160008c815260200190815260200160002060000160106101000a81548163ffffffff021916908360030b63ffffffff16021790555083600160008c815260200190815260200160002060000160146101000a81548163ffffffff021916908360030b63ffffffff16021790555082600160008c815260200190815260200160002060000160186101000a81548160ff02191690831515021790555081600160008c8152602001908152602001600020600101819055506000600160008c815260200190815260200160002060020154905060008090505b8251811015610d8f57828181518110610d2c57fe5b6020026020010151600160008e8152602001908152602001600020600301600084806001019550815260200190815260200160002060006101000a81548163ffffffff021916908360030b63ffffffff1602179055508080600101915050610d17565b5080600160008d815260200190815260200160002060020181905550505b50505050505050505050565b6000809054906101000a900473ffffffffffffffffffffffffffffffffffffffff1673ffffffffffffffffffffffffffffffffffffffff163373ffffffffffffffffffffffffffffffffffffffff161415610e655760006002600084815260200190815260200160002060000160008154809291906001019190505590508160026000858152602001908152602001600020600101600083815260200190815260200160002081905550505b5050565b6002602052806000526040600020600091509050806000015490508156fea265627a7a7231582024aea6bb798a3ab9c1b40f5b8ab71f004db5ab93028a5e6dbe43f3c26e5515bc64736f6c63430005100032",
  "source": "pragma solidity ^0.5.16;\n\ncontract StoreMap{\n\t//\t这一行声明了一个可以被公开访问的\n\t/*\n\t//\taddress 类型是一个160位的值，且不允许任何算数操作\n\t//\t这种类型适合存储合约地址或外部人员的密钥对\n\t*/\n\taddress public owner;\n\n\t// 这个合约只定义一个修饰器，但并未使用： 它将会在派生合约中用到\n\t// 修饰器所修饰的函数体会被插入到特殊符号 _; 的位置\n\t// 这意味着如果是 owner 调用这个函数，则函数会被执行，否则会抛出异常\n\t// 修改器可以修改参数\n\tmodifier restricted(){\n    \tif (msg.sender == owner) _;\n  \t}\n\n\t// 存储道路信息\n\tstruct road_info\n\t{\t\n\t\tint32 x1;\n\t\tint32 x2;\n\t\tint32 y1;\n\t\tint32 y2;\n\t\tint32 source;\n\t\tint32 target;\n\t\tbool  oneway;  //单向或双向\n\t\tbytes32 name;   //道路名称 \n\t\tuint path_num;\t\n\t\tmapping(uint => int32) path; // 道路数组\n\t}\n\n\t//gid->road_info,store real ways\n\tmapping(uint => road_info) ways;\n\n\t// 区域道路结构体,用于存储区域内的道路信息\n\tstruct area_ways{\n\t\tuint num;\n\t\t// num->gid,store gids of roads in the area\n\t\tmapping(uint => uint) ways_list;\n\t}\n\n\t// 对称\n\tmapping(bytes32 => area_ways) public geo_maps;\n\n\t// 存储地图函数，将owner存储为当前发送者\n\tconstructor() public{\n\t\towner = msg.sender;\n\t}\n\n\t// 读取道路信息，返回至前端，通过gid寻找\n\tfunction get_road(uint gid) view public returns (int32[] memory road, bytes32 names, int32[] memory path) {\n\t\troad = new int32[](7);\n\t\troad_info storage single_road = ways[gid];\n\t\tpath = new int32[](single_road.path_num);\n\t\troad[0] = single_road.x1;\n\t\troad[1] = single_road.y1;\n\t\troad[2] = single_road.x2;\n\t\troad[3] = single_road.y2;\n\t\troad[4] = single_road.source;\n\t\troad[5] = single_road.target;\n\t\tif(single_road.oneway){\n\t\t\troad[6] = 1;\n\t\t}\n\t\telse{\n\t\t\troad[6] = 0;\n\t\t}\n\t\tnames = single_road.name;\n\t\tfor(uint i=0; i< single_road.path_num; i++){\n\t\t\tpath[i] = single_road.path[i];\n\t\t}\n\t\t\n\t}\n\n\t// 获取对应geohash区域内所有道路信息\n\tfunction get_roads(bytes32 hash) view public returns (int32[] memory road, bytes32[] memory names, int32[] memory path) {\n\t\tuint num = geo_maps[hash].num;\n\t\tuint path_num = 0;\n\t\t//different parm in different domain may cause duplicate declare error when compile, maybe a bug\n\t\tuint i;\n\n\t\tif(num > 0){\n\t\t\troad = new int32[](8 * num);\n\t\t\tnames = new bytes32[]( num );\n\t\t\tuint gid;\n\t\t\tfor(i=0; i< num; i++){\n\t\t\t\tgid = geo_maps[hash].ways_list[i]; \n\t\t\t\troad_info storage single_road = ways[gid];\n\t\t\t\tuint base = i * 8;\n\t\t\t\troad[base] = int32(gid);\n\t\t\t\troad[base + 1] = single_road.x1;\n\t\t\t\troad[base + 2] = single_road.y1;\n\t\t\t\troad[base + 3] = single_road.x2;\n\t\t\t\troad[base + 4] = single_road.y2;\n\t\t\t\troad[base + 5] = single_road.source;\n\t\t\t\troad[base + 6] = single_road.target;\n\t\t\t\tpath_num = path_num + 1 + single_road.path_num;\n\t\t\t\tif(single_road.oneway){\n\t\t\t\t\troad[base + 7] = 1;\n\t\t\t\t}\n\t\t\t\telse{\n\t\t\t\t\troad[base + 7] = 0;\n\t\t\t\t}\n\t\t\t\tnames[i] = single_road.name;\n\t\t\t}\t\n\t\t\tpath = new int32[](path_num);\n\t\t\tuint pos = 0;\n\t\t\tfor(i=0; i< num; i++){\n\t\t\t\tgid = geo_maps[hash].ways_list[i];\n\t\t\t\t//may cause duplicate declare, don't know why\n\t\t\t\troad_info storage single_road2 = ways[gid];\n\t\t\t\tpath[pos++] = int32(single_road2.path_num);\n\t\t\t\tfor(uint j=0; j< single_road2.path_num; j++){\n\t\t\t\t\tpath[pos++] = single_road2.path[j];\n\t\t\t\t}\n\t\t\t}\n\t\t}\n    }\n\n\t// 添加一条道路\n\tfunction add_road(uint gid, int32 x1, int32 y1, int32 x2, int32 y2, int32 source, int32 target, bool oneway, bytes32 name, int32[] memory path) public restricted {\n        ways[gid].x1 = x1;\n\t    ways[gid].x2 = x2;\t\n\t\tways[gid].y1 = y1;\n\t\tways[gid].y2 = y2;\n\t\tways[gid].source = source;\n\t\tways[gid].target = target;\n\t\tways[gid].oneway = oneway;\n\t\tways[gid].name = name;\n\t\tuint num = ways[gid].path_num;\n\t\tfor(uint i=0; i< path.length; i++){\n\t\t\tways[gid].path[num++] = path[i];\n\t\t}\n\t\tways[gid].path_num = num;\n    }\n\n\t//bind a road to an area \n\tfunction add_area_road(bytes32 hash, uint gid) public restricted {\n\t\t//if(ways[gid].x1 > 0){//road exists\n\t\t\tuint num = geo_maps[hash].num++;\n\t\t\tgeo_maps[hash].ways_list[num] = gid;\n\t\t//}\n\t}\n\t\n    \n}\n\n",
  "sourcePath": "/run/media/ifpop/文件/Arch_file/workspace/test1/contracts/StoreMap.sol",
  "compiler": {
    "name": "solc",
    "version": "0.5.16+commit.9c3226ce.Emscripten.clang"
  },
  "schemaVersion": "3.3.3",
  "updatedAt": "2021-04-19T07:31:00.873Z",
  "networkType": "ethereum",
  "devdoc": {
    "methods": {}
  },
  "userdoc": {
    "methods": {}
  }
}