{
  "contractName": "Contract",
  "abi": [
    {
      "constant": false,
      "inputs": [
        {
          "internalType": "string",
          "name": "uuid",
          "type": "string"
        }
      ],
      "name": "revalue",
      "outputs": [],
      "payable": false,
      "stateMutability": "nonpayable",
      "type": "function"
    },
    {
      "constant": true,
      "inputs": [
        {
          "internalType": "string",
          "name": "uuid",
          "type": "string"
        }
      ],
      "name": "getQuality",
      "outputs": [
        {
          "internalType": "int256",
          "name": "",
          "type": "int256"
        }
      ],
      "payable": false,
      "stateMutability": "view",
      "type": "function"
    },
    {
      "constant": true,
      "inputs": [
        {
          "internalType": "string",
          "name": "uuid",
          "type": "string"
        }
      ],
      "name": "getSinglePos",
      "outputs": [
        {
          "internalType": "uint256",
          "name": "",
          "type": "uint256"
        },
        {
          "internalType": "uint256",
          "name": "",
          "type": "uint256"
        },
        {
          "internalType": "uint256",
          "name": "",
          "type": "uint256"
        },
        {
          "internalType": "uint256",
          "name": "",
          "type": "uint256"
        },
        {
          "internalType": "uint256",
          "name": "",
          "type": "uint256"
        }
      ],
      "payable": false,
      "stateMutability": "view",
      "type": "function"
    },
    {
      "constant": false,
      "inputs": [
        {
          "internalType": "string",
          "name": "uuid",
          "type": "string"
        },
        {
          "internalType": "uint256",
          "name": "time",
          "type": "uint256"
        },
        {
          "internalType": "uint256",
          "name": "_latOri",
          "type": "uint256"
        },
        {
          "internalType": "uint256",
          "name": "_lonOri",
          "type": "uint256"
        },
        {
          "internalType": "uint256",
          "name": "_latFix",
          "type": "uint256"
        },
        {
          "internalType": "uint256",
          "name": "_lonFix",
          "type": "uint256"
        }
      ],
      "name": "setSinglePos",
      "outputs": [],
      "payable": false,
      "stateMutability": "nonpayable",
      "type": "function"
    }
  ],
  "bytecode": "0x608060405234801561001057600080fd5b506118cb806100206000396000f3fe608060405234801561001057600080fd5b506004361061004c5760003560e01c806332c267e2146100515780636e73a9b51461012057806376556a411461020d578063ce8f2494146102f8575b600080fd5b61010a6004803603602081101561006757600080fd5b810190808035906020019064010000000081111561008457600080fd5b82018360208201111561009657600080fd5b803590602001918460018302840111640100000000831117156100b857600080fd5b91908080601f016020809104026020016040519081016040528093929190818152602001838380828437600081840152601f19601f8201169050808301925050505050505091929192905050506103b3565b6040518082815260200191505060405180910390f35b61020b600480360360c081101561013657600080fd5b810190808035906020019064010000000081111561015357600080fd5b82018360208201111561016557600080fd5b8035906020019184600183028401116401000000008311171561018757600080fd5b91908080601f016020809104026020016040519081016040528093929190818152602001838380828437600081840152601f19601f82011690508083019250505050505050919291929080359060200190929190803590602001909291908035906020019092919080359060200190929190803590602001909291905050506104b1565b005b6102c66004803603602081101561022357600080fd5b810190808035906020019064010000000081111561024057600080fd5b82018360208201111561025257600080fd5b8035906020019184600183028401116401000000008311171561027457600080fd5b91908080601f016020809104026020016040519081016040528093929190818152602001838380828437600081840152601f19601f820116905080830192505050505050509192919290505050610a8c565b604051808681526020018581526020018481526020018381526020018281526020019550505050505060405180910390f35b6103b16004803603602081101561030e57600080fd5b810190808035906020019064010000000081111561032b57600080fd5b82018360208201111561033d57600080fd5b8035906020019184600183028401116401000000008311171561035f57600080fd5b91908080601f016020809104026020016040519081016040528093929190818152602001838380828437600081840152601f19601f820116905080830192505050505050509192919290505050610d8e565b005b6000600a826040518082805190602001908083835b602083106103eb57805182526020820191506020810190506020830392506103c8565b6001836020036101000a038019825116818451168082178552505050505050905001915050908152602001604051809103902060020160009054906101000a900460ff1661043c57600090506104ac565b600a826040518082805190602001908083835b60208310610472578051825260208201915060208101905060208303925061044f565b6001836020036101000a03801982511681845116808217855250505050505090500191505090815260200160405180910390206009015490505b919050565b600a866040518082805190602001908083835b602083106104e757805182526020820191506020810190506020830392506104c4565b6001836020036101000a038019825116818451168082178552505050505050905001915050908152602001604051809103902060020160009054906101000a900460ff1661070b576001600a876040518082805190602001908083835b602083106105675780518252602082019150602081019050602083039250610544565b6001836020036101000a038019825116818451168082178552505050505050905001915050908152602001604051809103902060020160006101000a81548160ff0219169083151502179055506000600a876040518082805190602001908083835b602083106105ec57805182526020820191506020810190506020830392506105c9565b6001836020036101000a0380198251168184511680821785525050505050509050019150509081526020016040518091039020600101819055506001600a876040518082805190602001908083835b6020831061065e578051825260208201915060208101905060208303925061063b565b6001836020036101000a0380198251168184511680821785525050505050509050019150509081526020016040518091039020600301819055506000600a876040518082805190602001908083835b602083106106d057805182526020820191506020810190506020830392506106ad565b6001836020036101000a0380198251168184511680821785525050505050509050019150509081526020016040518091039020600901819055505b60006001600a886040518082805190602001908083835b602083106107455780518252602082019150602081019050602083039250610722565b6001836020036101000a03801982511681845116808217855250505050505090500191505090815260200160405180910390206001015401905080600a886040518082805190602001908083835b602083106107b65780518252602082019150602081019050602083039250610793565b6001836020036101000a03801982511681845116808217855250505050505090500191505090815260200160405180910390206001018190555085600a886040518082805190602001908083835b602083106108275780518252602082019150602081019050602083039250610804565b6001836020036101000a038019825116818451168082178552505050505050905001915050908152602001604051809103902060080160008381526020019081526020016000208190555084600a886040518082805190602001908083835b602083106108a95780518252602082019150602081019050602083039250610886565b6001836020036101000a038019825116818451168082178552505050505050905001915050908152602001604051809103902060040160008381526020019081526020016000208190555083600a886040518082805190602001908083835b6020831061092b5780518252602082019150602081019050602083039250610908565b6001836020036101000a038019825116818451168082178552505050505050905001915050908152602001604051809103902060050160008381526020019081526020016000208190555082600a886040518082805190602001908083835b602083106109ad578051825260208201915060208101905060208303925061098a565b6001836020036101000a038019825116818451168082178552505050505050905001915050908152602001604051809103902060060160008381526020019081526020016000208190555081600a886040518082805190602001908083835b60208310610a2f5780518252602082019150602081019050602083039250610a0c565b6001836020036101000a0380198251168184511680821785525050505050509050019150509081526020016040518091039020600701600083815260200190815260200160002081905550610a8387610d8e565b50505050505050565b600080600080600080600a876040518082805190602001908083835b60208310610acb5780518252602082019150602081019050602083039250610aa8565b6001836020036101000a0380198251168184511680821785525050505050509050019150509081526020016040518091039020600101549050600a876040518082805190602001908083835b60208310610b3a5780518252602082019150602081019050602083039250610b17565b6001836020036101000a0380198251168184511680821785525050505050509050019150509081526020016040518091039020600401600082815260200190815260200160002054600a886040518082805190602001908083835b60208310610bb85780518252602082019150602081019050602083039250610b95565b6001836020036101000a0380198251168184511680821785525050505050509050019150509081526020016040518091039020600501600083815260200190815260200160002054600a896040518082805190602001908083835b60208310610c365780518252602082019150602081019050602083039250610c13565b6001836020036101000a0380198251168184511680821785525050505050509050019150509081526020016040518091039020600601600084815260200190815260200160002054600a8a6040518082805190602001908083835b60208310610cb45780518252602082019150602081019050602083039250610c91565b6001836020036101000a0380198251168184511680821785525050505050509050019150509081526020016040518091039020600701600085815260200190815260200160002054600a8b6040518082805190602001908083835b60208310610d325780518252602082019150602081019050602083039250610d0f565b6001836020036101000a0380198251168184511680821785525050505050509050019150509081526020016040518091039020600801600086815260200190815260200160002054955095509550955095505091939590929450565b6000600a826040518082805190602001908083835b60208310610dc65780518252602082019150602081019050602083039250610da3565b6001836020036101000a03801982511681845116808217855250505050505090500191505090815260200160405180910390206009015490506000600a836040518082805190602001908083835b60208310610e375780518252602082019150602081019050602083039250610e14565b6001836020036101000a0380198251168184511680821785525050505050509050019150509081526020016040518091039020600101549050600080600a856040518082805190602001908083835b60208310610ea95780518252602082019150602081019050602083039250610e86565b6001836020036101000a0380198251168184511680821785525050505050509050019150509081526020016040518091039020600601600084815260200190815260200160002054600a866040518082805190602001908083835b60208310610f275780518252602082019150602081019050602083039250610f04565b6001836020036101000a03801982511681845116808217855250505050505090500191505090815260200160405180910390206004016000858152602001908152602001600020541061107857600a856040518082805190602001908083835b60208310610faa5780518252602082019150602081019050602083039250610f87565b6001836020036101000a0380198251168184511680821785525050505050509050019150509081526020016040518091039020600601600084815260200190815260200160002054600a866040518082805190602001908083835b602083106110285780518252602082019150602081019050602083039250611005565b6001836020036101000a0380198251168184511680821785525050505050509050019150509081526020016040518091039020600401600085815260200190815260200160002054039050611178565b600a856040518082805190602001908083835b602083106110ae578051825260208201915060208101905060208303925061108b565b6001836020036101000a0380198251168184511680821785525050505050509050019150509081526020016040518091039020600401600084815260200190815260200160002054600a866040518082805190602001908083835b6020831061112c5780518252602082019150602081019050602083039250611109565b6001836020036101000a03801982511681845116808217855250505050505090500191505090815260200160405180910390206006016000858152602001908152602001600020540390505b600a856040518082805190602001908083835b602083106111ae578051825260208201915060208101905060208303925061118b565b6001836020036101000a0380198251168184511680821785525050505050509050019150509081526020016040518091039020600701600084815260200190815260200160002054600a866040518082805190602001908083835b6020831061122c5780518252602082019150602081019050602083039250611209565b6001836020036101000a03801982511681845116808217855250505050505090500191505090815260200160405180910390206005016000858152602001908152602001600020541061137d57600a856040518082805190602001908083835b602083106112af578051825260208201915060208101905060208303925061128c565b6001836020036101000a0380198251168184511680821785525050505050509050019150509081526020016040518091039020600701600084815260200190815260200160002054600a866040518082805190602001908083835b6020831061132d578051825260208201915060208101905060208303925061130a565b6001836020036101000a038019825116818451168082178552505050505050905001915050908152602001604051809103902060050160008581526020019081526020016000205403915061147d565b600a856040518082805190602001908083835b602083106113b35780518252602082019150602081019050602083039250611390565b6001836020036101000a0380198251168184511680821785525050505050509050019150509081526020016040518091039020600501600084815260200190815260200160002054600a866040518082805190602001908083835b60208310611431578051825260208201915060208101905060208303925061140e565b6001836020036101000a03801982511681845116808217855250505050505090500191505090815260200160405180910390206007016000858152602001908152602001600020540391505b60088182028384600402020111611495576001840193505b6009600a84816114a157fe5b0614156114af576001840193505b6001831180156115be5750603c600a866040518082805190602001908083835b602083106114f257805182526020820191506020810190506020830392506114cf565b6001836020036101000a0380198251168184511680821785525050505050509050019150509081526020016040518091039020600801600060018603815260200190815260200160002054600a876040518082805190602001908083835b602083106115735780518252602082019150602081019050602083039250611550565b6001836020036101000a038019825116818451168082178552505050505050905001915050908152602001604051809103902060080160008681526020019081526020016000205403115b156115ca576001840393505b6001831180156116da5750610258600a866040518082805190602001908083835b6020831061160e57805182526020820191506020810190506020830392506115eb565b6001836020036101000a0380198251168184511680821785525050505050509050019150509081526020016040518091039020600801600060018603815260200190815260200160002054600a876040518082805190602001908083835b6020831061168f578051825260208201915060208101905060208303925061166c565b6001836020036101000a038019825116818451168082178552505050505050905001915050908152602001604051809103902060080160008681526020019081526020016000205403115b156116e6576014840393505b6001831180156117f657506104b0600a866040518082805190602001908083835b6020831061172a5780518252602082019150602081019050602083039250611707565b6001836020036101000a0380198251168184511680821785525050505050509050019150509081526020016040518091039020600801600060018603815260200190815260200160002054600a876040518082805190602001908083835b602083106117ab5780518252602082019150602081019050602083039250611788565b6001836020036101000a038019825116818451168082178552505050505050905001915050908152602001604051809103902060080160008681526020019081526020016000205403115b15611802576064840393505b606484131561181057606493505b600084121561181e57600093505b83600a866040518082805190602001908083835b602083106118555780518252602082019150602081019050602083039250611832565b6001836020036101000a038019825116818451168082178552505050505050905001915050908152602001604051809103902060090181905550505050505056fea265627a7a72315820a9684cf8e73cc78c8940e6f596597cd545ad180d58da47d3890d11dfabcfe09d64736f6c63430005100032",
  "source": "pragma solidity ^0.5.16;\r\n\r\ncontract Contract{\r\n    // 用户结构体\r\n    struct user{\r\n        string uuid; //用户id,唯一标识码\r\n        uint num;   //相当于下面数据列表的长度\r\n        bool isUsed; //判断id是否在用\r\n        uint status;\r\n        mapping(uint => uint) latOri;  //原始纬度\r\n        mapping(uint => uint) lonOri;  //原始经度\r\n        mapping(uint => uint) latFix;  //修正纬度\r\n        mapping(uint => uint) lonFix;  //修正经度\r\n        mapping(uint => uint) time;   //时间\r\n        int quality;           //用户信誉值\r\n    }\r\n    \r\n    user tempuser; //user的一个实例，一个临时的记录\r\n    \r\n    //定义一个映射表，将uuid字符串与user结构体联系起来\r\n    mapping(string => user) users;\r\n    \r\n    /***\r\n    计算信誉值\r\n    ***/\r\n    function revalue(string memory uuid) public { // memory暂存内存，使用开销相对较小\r\n        int quality = users[uuid].quality;\r\n        uint num = users[uuid].num;\r\n        uint dx; //经度差\r\n        uint dy; //纬度差\r\n        //计算差，且保证结果为正\r\n        if (users[uuid].latOri[num] >= users[uuid].latFix[num]) {\r\n            dy = users[uuid].latOri[num] - users[uuid].latFix[num];\r\n        } else {\r\n            dy = users[uuid].latFix[num] - users[uuid].latOri[num];\r\n        }\r\n\r\n        if (users[uuid].lonOri[num] >= users[uuid].lonFix[num]) {\r\n            dx = users[uuid].lonOri[num] - users[uuid].lonFix[num];\r\n        } else {\r\n            dx = users[uuid].lonFix[num] - users[uuid].lonOri[num];\r\n        }\r\n        if (4 * dx * dx + dy * dy <= 8) {\r\n            quality = quality + 1;\r\n        }\r\n        if (num % 10 == 9) {\r\n            quality = quality + 1;\r\n        }\r\n        //本次距上次提交数据时间间隔1min、10min、20min信誉值进行减1、20、100\r\n        if ((num > 1) && (users[uuid].time[num] - users[uuid].time[num - 1] > 60)) {\r\n            quality = quality - 1;\r\n        }\r\n        if ((num > 1) && (users[uuid].time[num] - users[uuid].time[num - 1] > 600)) {\r\n            quality = quality - 20;\r\n        }\r\n        if ((num > 1) && (users[uuid].time[num] - users[uuid].time[num - 1] > 1200)) {\r\n            quality = quality - 100;\r\n        }\r\n        \r\n        /*if (num > 1) {\r\n            if (users[uuid].latFix[num] >= users[uuid].latFix[num-1]) {\r\n                dy = users[uuid].latFix[num] - users[uuid].latFix[num-1];\r\n            } else {\r\n                dy = users[uuid].latFix[num-1] - users[uuid].latFix[num];\r\n            }\r\n            if (users[uuid].lonFix[num] >= users[uuid].lonFix[num-1]) {\r\n                dx = users[uuid].lonFix[num] - users[uuid].lonFix[num-1];\r\n            } else {\r\n                dx = users[uuid].lonFix[num-1] - users[uuid].lonFix[num];\r\n            }\r\n            if ((((users[uuid].time[num] - users[uuid].time[num - 1]) * 40) ** 2) < \r\n                ((dx * 30) ** 2 + (dy * 20) ** 2)) {\r\n                quality = quality - 100;\r\n            }\r\n        }*/\r\n        \r\n        \r\n        if (quality > 100) {\r\n            quality = 100;\r\n        }\r\n        if (quality < 0) {\r\n            quality = 0;\r\n        }\r\n        users[uuid].quality = quality;\r\n        \r\n        /*\r\n        uint quality = tempuser.quality;\r\n        if (tempuser.num == 1) {\r\n            \r\n        }\r\n        \r\n        tempuser.quality = quality + 1;\r\n        */\r\n    }\r\n    \r\n    function getQuality(string memory uuid) view public  returns (int) {\r\n        if (!users[uuid].isUsed) {\r\n            return 0;\r\n        }\r\n        return users[uuid].quality;\r\n        \r\n        \r\n        //if (!tempuser.isUsed) {\r\n        //    return 0;\r\n        //}\r\n        //return tempuser.quality;\r\n    }\r\n    //返回位置和时间数据\r\n    function getSinglePos(string memory uuid) public view returns (uint, uint, uint, uint, uint) {\r\n        uint num = users[uuid].num;\r\n        return (users[uuid].latOri[num], users[uuid].lonOri[num], users[uuid].latFix[num], users[uuid].lonFix[num], users[uuid].time[num]);\r\n        \r\n        //num = tempuser.num;\r\n        //return (tempuser.latOri[num], tempuser.lonOri[num], tempuser.latFix[num], tempuser.lonFix[num], tempuser.time[num]);\r\n        \r\n    }\r\n     \r\n    function setSinglePos(string memory uuid, uint time, uint _latOri, uint _lonOri,  uint _latFix, uint _lonFix) public {\r\n       //初始化\r\n       if (!users[uuid].isUsed) {\r\n           users[uuid].isUsed = true;\r\n           users[uuid].num = 0;\r\n           users[uuid].status = 1;\r\n           users[uuid].quality = 0;\r\n       }\r\n       //设置users里面每个num对应的各项属性\r\n       uint num = users[uuid].num + 1;\r\n       users[uuid].num = num;\r\n       users[uuid].time[num] = time;\r\n       users[uuid].latOri[num] = _latOri;\r\n       users[uuid].lonOri[num] = _lonOri;\r\n       users[uuid].latFix[num] = _latFix;\r\n       users[uuid].lonFix[num] = _lonFix;\r\n       revalue(uuid);\r\n   }   \r\n}",
  "sourcePath": "/run/media/ifpop/文件/Arch_file/workspace/test2/contracts/contract.sol",
  "compiler": {
    "name": "solc",
    "version": "0.5.16+commit.9c3226ce.Emscripten.clang"
  },
  "schemaVersion": "3.3.3",
  "updatedAt": "2021-05-07T06:34:05.980Z",
  "networkType": "ethereum",
  "devdoc": {
    "methods": {}
  },
  "userdoc": {
    "methods": {
      "revalue(string)": {
        "notice": "* 计算信誉值**"
      }
    }
  }
}