{
  "contractName": "StoreMap",
  "abi": [
    {
      "inputs": [],
      "payable": false,
      "stateMutability": "nonpayable",
      "type": "constructor"
    },
    {
      "constant": true,
      "inputs": [
        {
          "internalType": "bytes32",
          "name": "",
          "type": "bytes32"
        }
      ],
      "name": "geo_maps",
      "outputs": [
        {
          "internalType": "uint256",
          "name": "num",
          "type": "uint256"
        }
      ],
      "payable": false,
      "stateMutability": "view",
      "type": "function"
    },
    {
      "constant": true,
      "inputs": [],
      "name": "owner",
      "outputs": [
        {
          "internalType": "address",
          "name": "",
          "type": "address"
        }
      ],
      "payable": false,
      "stateMutability": "view",
      "type": "function"
    },
    {
      "constant": true,
      "inputs": [
        {
          "internalType": "uint256",
          "name": "gid",
          "type": "uint256"
        }
      ],
      "name": "get_onetype",
      "outputs": [
        {
          "internalType": "int32[]",
          "name": "feature",
          "type": "int32[]"
        },
        {
          "internalType": "bytes32",
          "name": "names",
          "type": "bytes32"
        },
        {
          "internalType": "bytes32",
          "name": "highway",
          "type": "bytes32"
        },
        {
          "internalType": "bytes32",
          "name": "gtype",
          "type": "bytes32"
        },
        {
          "internalType": "bytes32[]",
          "name": "path",
          "type": "bytes32[]"
        }
      ],
      "payable": false,
      "stateMutability": "view",
      "type": "function"
    },
    {
      "constant": true,
      "inputs": [
        {
          "internalType": "bytes32",
          "name": "hash",
          "type": "bytes32"
        }
      ],
      "name": "get_types",
      "outputs": [
        {
          "internalType": "int32[]",
          "name": "feature",
          "type": "int32[]"
        },
        {
          "internalType": "bytes32[]",
          "name": "names",
          "type": "bytes32[]"
        },
        {
          "internalType": "bytes32[]",
          "name": "highways",
          "type": "bytes32[]"
        },
        {
          "internalType": "bytes32[]",
          "name": "gtypes",
          "type": "bytes32[]"
        },
        {
          "internalType": "bytes32[]",
          "name": "path",
          "type": "bytes32[]"
        }
      ],
      "payable": false,
      "stateMutability": "view",
      "type": "function"
    },
    {
      "constant": false,
      "inputs": [
        {
          "internalType": "uint256",
          "name": "gid",
          "type": "uint256"
        },
        {
          "internalType": "int32",
          "name": "minzoom",
          "type": "int32"
        },
        {
          "internalType": "bool",
          "name": "oneway",
          "type": "bool"
        },
        {
          "internalType": "bool",
          "name": "building",
          "type": "bool"
        },
        {
          "internalType": "bytes32",
          "name": "highway",
          "type": "bytes32"
        },
        {
          "internalType": "bytes32",
          "name": "name",
          "type": "bytes32"
        },
        {
          "internalType": "bytes32",
          "name": "gtype",
          "type": "bytes32"
        },
        {
          "internalType": "bytes32[]",
          "name": "path",
          "type": "bytes32[]"
        }
      ],
      "name": "add_onetype",
      "outputs": [],
      "payable": false,
      "stateMutability": "nonpayable",
      "type": "function"
    },
    {
      "constant": false,
      "inputs": [
        {
          "internalType": "bytes32",
          "name": "hash",
          "type": "bytes32"
        },
        {
          "internalType": "uint256",
          "name": "gid",
          "type": "uint256"
        }
      ],
      "name": "add_area_line",
      "outputs": [],
      "payable": false,
      "stateMutability": "nonpayable",
      "type": "function"
    }
  ],
  "bytecode": "0x608060405234801561001057600080fd5b50336000806101000a81548173ffffffffffffffffffffffffffffffffffffffff021916908373ffffffffffffffffffffffffffffffffffffffff160217905550610daf806100606000396000f3fe608060405234801561001057600080fd5b50600436106100625760003560e01c8063113620ec146100675780633fb80582146101475780635f79e983146102ea5780638da5cb5b146103f0578063cbf3b01e1461043a578063f90e5ca91461047c575b600080fd5b6100936004803603602081101561007d57600080fd5b81019080803590602001909291905050506104b4565b604051808060200186815260200185815260200184815260200180602001838103835288818151815260200191508051906020019060200280838360005b838110156100ec5780820151818401526020810190506100d1565b50505050905001838103825284818151815260200191508051906020019060200280838360005b8381101561012e578082015181840152602081019050610113565b5050505090500197505050505050505060405180910390f35b6101736004803603602081101561015d57600080fd5b81019080803590602001909291905050506106a3565b60405180806020018060200180602001806020018060200186810386528b818151815260200191508051906020019060200280838360005b838110156101c65780820151818401526020810190506101ab565b5050505090500186810385528a818151815260200191508051906020019060200280838360005b838110156102085780820151818401526020810190506101ed565b50505050905001868103845289818151815260200191508051906020019060200280838360005b8381101561024a57808201518184015260208101905061022f565b50505050905001868103835288818151815260200191508051906020019060200280838360005b8381101561028c578082015181840152602081019050610271565b50505050905001868103825287818151815260200191508051906020019060200280838360005b838110156102ce5780820151818401526020810190506102b3565b505050509050019a505050505050505050505060405180910390f35b6103ee600480360361010081101561030157600080fd5b8101908080359060200190929190803560030b90602001909291908035151590602001909291908035151590602001909291908035906020019092919080359060200190929190803590602001909291908035906020019064010000000081111561036b57600080fd5b82018360208201111561037d57600080fd5b8035906020019184602083028401116401000000008311171561039f57600080fd5b919080806020026020016040519081016040528093929190818152602001838360200280828437600081840152601f19601f820116905080830192505050505050509192919290505050610aa9565b005b6103f8610c87565b604051808273ffffffffffffffffffffffffffffffffffffffff1673ffffffffffffffffffffffffffffffffffffffff16815260200191505060405180910390f35b6104666004803603602081101561045057600080fd5b8101908080359060200190929190505050610cac565b6040518082815260200191505060405180910390f35b6104b26004803603604081101561049257600080fd5b810190808035906020019092919080359060200190929190505050610cca565b005b60606000806000606060036040519080825280602002602001820160405280156104ed5781602001602082028038833980820191505090505b5094506000600160008881526020019081526020016000209050806004015460405190808252806020026020018201604052801561053a5781602001602082028038833980820191505090505b5091508060000160009054906101000a900460030b8660008151811061055c57fe5b602002602001019060030b908160030b815250508060000160049054906101000a900460ff16156105af5760018660018151811061059657fe5b602002602001019060030b908160030b815250506105d3565b6000866001815181106105be57fe5b602002602001019060030b908160030b815250505b8060000160059054906101000a900460ff1615610612576001866002815181106105f957fe5b602002602001019060030b908160030b81525050610636565b60008660028151811061062157fe5b602002602001019060030b908160030b815250505b80600201549450806001015493508060030154925060008090505b8160040154811015610698578160050160008281526020019081526020016000205483828151811061067f57fe5b6020026020010181815250508080600101915050610651565b505091939590929450565b60608060608060606000600260008881526020019081526020016000206000015490506000809050600080831115610a9d57826004026040519080825280602002602001820160405280156107075781602001602082028038833980820191505090505b509750826040519080825280602002602001820160405280156107395781602001602082028038833980820191505090505b5096508260405190808252806020026020018201604052801561076b5781602001602082028038833980820191505090505b5095508260405190808252806020026020018201604052801561079d5781602001602082028038833980820191505090505b50945060008091505b8382101561098d57600260008b8152602001908152602001600020600101600083815260200190815260200160002054905060006001600083815260200190815260200160002090506000600484029050828b828151811061080457fe5b602002602001019060030b908160030b815250508160000160009054906101000a900460030b8b600183018151811061083957fe5b602002602001019060030b908160030b815250508160000160049054906101000a900460ff161561088e5760018b600283018151811061087557fe5b602002602001019060030b908160030b815250506108b4565b60008b600283018151811061089f57fe5b602002602001019060030b908160030b815250505b8160000160059054906101000a900460ff16156108f55760018b60038301815181106108dc57fe5b602002602001019060030b908160030b8152505061091b565b60008b600383018151811061090657fe5b602002602001019060030b908160030b815250505b81600401546001860101945081600201548a858151811061093857fe5b602002602001018181525050816001015489858151811061095557fe5b602002602001018181525050816003015488858151811061097257fe5b602002602001018181525050505081806001019250506107a6565b826040519080825280602002602001820160405280156109bc5781602001602082028038833980820191505090505b5094506000809050600092505b84831015610a9a57600260008c815260200190815260200160002060010160008481526020019081526020016000205491506000600160008481526020019081526020016000209050806004015460001b878380600101945081518110610a2c57fe5b60200260200101818152505060008090505b8160040154811015610a8b5781600501600082815260200190815260200160002054888480600101955081518110610a7257fe5b6020026020010181815250508080600101915050610a3e565b505082806001019350506109c9565b50505b50505091939590929450565b6000809054906101000a900473ffffffffffffffffffffffffffffffffffffffff1673ffffffffffffffffffffffffffffffffffffffff163373ffffffffffffffffffffffffffffffffffffffff161415610c7d5786600160008a815260200190815260200160002060000160006101000a81548163ffffffff021916908360030b63ffffffff16021790555085600160008a815260200190815260200160002060000160046101000a81548160ff02191690831515021790555084600160008a815260200190815260200160002060000160056101000a81548160ff02191690831515021790555083600160008a81526020019081526020016000206001018190555082600160008a81526020019081526020016000206002018190555081600160008a8152602001908152602001600020600301819055506000600160008a815260200190815260200160002060040154905060008090505b8251811015610c5f57828181518110610c1957fe5b6020026020010151600160008c81526020019081526020016000206005016000848060010195508152602001908152602001600020819055508080600101915050610c04565b5080600160008b815260200190815260200160002060040181905550505b5050505050505050565b6000809054906101000a900473ffffffffffffffffffffffffffffffffffffffff1681565b60026020528060005260406000206000915090508060000154905081565b6000809054906101000a900473ffffffffffffffffffffffffffffffffffffffff1673ffffffffffffffffffffffffffffffffffffffff163373ffffffffffffffffffffffffffffffffffffffff161415610d765760006002600084815260200190815260200160002060000160008154809291906001019190505590508160026000858152602001908152602001600020600101600083815260200190815260200160002081905550505b505056fea265627a7a723158209283e3b451ea0775d413af39f3394c14de296f55bfdaa840d21b63f52025365364736f6c63430005100032",
  "source": "pragma solidity ^0.5.16;\n\ncontract StoreMap{\n\t//\t这一行声明了一个可以被公开访问的\n\t/*\n\t//\taddress 类型是一个160位的值，且不允许任何算数操作\n\t//\t这种类型适合存储合约地址或外部人员的密钥对\n\t*/\n\taddress public owner;\n\n\t// 这个合约只定义一个修饰器，但并未使用： 它将会在派生合约中用到\n\t// 修饰器所修饰的函数体会被插入到特殊符号 _; 的位置\n\t// 这意味着如果是 owner 调用这个函数，则函数会被执行，否则会抛出异常\n\t// 修改器可以修改参数\n\tmodifier restricted(){\n    \tif (msg.sender == owner) _;\n  \t}\n\n\t// 存储地图信息\n\tstruct one_type\n\t{\t\n\t\tint32 minzoom;\n\t\tbool  oneway;  \n        bool  building; \n        bytes32 highway;\n        bytes32 name;   //名称 \n        bytes32 gtype;\n\t\tuint path_num;\t\n\t\tmapping(uint => bytes32) path;\n\t}\n\n\t//gid->one_type,store real types\n\tmapping(uint => one_type) types;\n\n\t// 区域道路结构体,用于存储区域内的道路信息\n\tstruct  area_types{\n\t\tuint num;\n\t\t// num->gid,store gids of roads in the area\n\t\tmapping(uint => uint) types_list;\n\t}\n\n\t// 对称\n\tmapping(bytes32 =>  area_types) public geo_maps;\n\n\t// 存储地图函数，将owner存储为当前发送者\n\tconstructor() public{\n\t\towner = msg.sender;\n\t}\n\n\t// 读取道路信息，返回至前端，通过gid寻找\n\tfunction get_onetype(uint gid) view public returns (int32[] memory feature, bytes32 names, bytes32 highway, bytes32 gtype, bytes32[] memory path) {\n\t\tfeature = new int32[](3);\n\t\tone_type storage single_type = types[gid];\n\t\tpath = new bytes32[](single_type.path_num);\n\t\tfeature[0] = single_type.minzoom;\n\t\tif(single_type.oneway){\n\t\t\tfeature[1] = 1;\n\t\t}\n\t\telse{\n\t\t\tfeature[1] = 0;\n\t\t}\n        if(single_type.building){\n\t\t\tfeature[2] = 1;\n\t\t}\n\t\telse{\n\t\t\tfeature[2] = 0;\n\t\t}\n\t\tnames = single_type.name;\n\t\thighway = single_type.highway;\n\t\tgtype = single_type.gtype;\n\t\tfor(uint i=0; i< single_type.path_num; i++){\n\t\t\tpath[i] = single_type.path[i];\n\t\t}\n\t\t\n\t}\n\n\t// 获取对应geohash区域内所有道路信息\n\tfunction get_types(bytes32 hash) view public returns (int32[] memory feature, bytes32[] memory names, bytes32[] memory highways, bytes32[] memory gtypes, bytes32[] memory path) {\n\t\tuint num = geo_maps[hash].num;\n\t\tuint path_num = 0;\n\t\t//different parm in different domain may cause duplicate declare error when compile, maybe a bug\n\t\tuint i;\n\n\t\tif(num > 0){\n\t\t\tfeature = new int32[](4 * num);\n\t\t\tnames = new bytes32[]( num );\n\t\t\thighways = new bytes32[]( num );\n\t\t\tgtypes = new bytes32[]( num );\n\t\t\tuint gid;\n\t\t\tfor(i=0; i < num; i++){\n\t\t\t\tgid = geo_maps[hash].types_list[i]; \n\t\t\t\tone_type storage single_type = types[gid];\n\t\t\t\tuint base = i * 4;\n\t\t\t\tfeature[base] = int32(gid);\n\t\t\t\tfeature[base + 1] = single_type.minzoom;\n\t\t\t\tif(single_type.oneway){\n\t\t\t\t\tfeature[base + 2] = 1;\n\t\t\t\t}\n\t\t\t\telse{\n\t\t\t\t\tfeature[base + 2] = 0;\n\t\t\t\t}\n\t\t\t\tif(single_type.building){\n\t\t\t\t\tfeature[base + 3] = 1;\n\t\t\t\t}\n\t\t\t\telse{\n\t\t\t\t\tfeature[base + 3] = 0;\n\t\t\t\t}\n\t\t\t\tpath_num = path_num + 1 + single_type.path_num;\n\t\t\t\tnames[i] = single_type.name;\n\t\t\t\thighways[i] = single_type.highway;\n\t\t\t\tgtypes[i] = single_type.gtype;\n\t\t\t}\n\t\t\tpath = new bytes32[](path_num);\n\t\t\tuint pos = 0;\n\t\t\tfor(i=0; i< num; i++){\n\t\t\t\tgid = geo_maps[hash].types_list[i];\n\t\t\t\t//may cause duplicate declare, don't know why\n\t\t\t\tone_type storage single_type2 = types[gid];\n\t\t\t\tpath[pos++] = bytes32(single_type2.path_num);\n\t\t\t\tfor(uint j=0; j< single_type2.path_num; j++){\n\t\t\t\t\tpath[pos++] = single_type2.path[j];\n\t\t\t\t}\n\t\t\t}\n\t\t}\n    }\n\n\t// 添加一条\n\tfunction add_onetype(uint gid, int32 minzoom, bool oneway, bool building, bytes32 highway, bytes32 name, bytes32 gtype, bytes32[] memory path) public restricted {\n\t\ttypes[gid].minzoom = minzoom;\n\t    types[gid].oneway = oneway;\t\n\t\ttypes[gid].building = building;\n\t\ttypes[gid].highway = highway;\n\t\ttypes[gid].name = name;\n\t\ttypes[gid].gtype = gtype;\n\n\t\tuint num = types[gid].path_num;\n\t\tfor(uint i=0; i< path.length; i++){\n\t\t\ttypes[gid].path[num++] = path[i];\n\t\t}\n\t\ttypes[gid].path_num = num;\n    }\n\n\t//bind a line to an area \n\tfunction add_area_line(bytes32 hash, uint gid) public restricted {\n\t\t\tuint num = geo_maps[hash].num++;\n\t\t\tgeo_maps[hash].types_list[num] = gid;\n\t} \n}\n\n",
  "sourcePath": "/run/media/ifpop/文件/Arch_file/workspace/Union_1/data/contracts/StoreMap.sol",
  "compiler": {
    "name": "solc",
    "version": "0.5.16+commit.9c3226ce.Emscripten.clang"
  },
  "schemaVersion": "3.3.3",
  "updatedAt": "2021-05-11T04:14:41.549Z",
  "networkType": "ethereum",
  "devdoc": {
    "methods": {}
  },
  "userdoc": {
    "methods": {}
  }
}